:020000040800F2
:10000000E8310020DD010008750B0008A307000897
:10001000710B000825030008811000080000000093
:100020000000000000000000000000004501000882
:10003000290300080000000089010008550E00088F
:10004000F7010008F7010008F7010008F7010008B0
:10005000F7010008F7010008F7010008F7010008A0
:10006000F7010008F7010008F7010008F701000890
:10007000F7010008F7010008F7010008F701000880
:10008000F7010008F7010008F7010008F701000870
:10009000F7010008F7010008F7010008F701000860
:1000A000F7010008D50F0008F7010008F701000864
:1000B000F7010008F7010008F7010008F701000840
:1000C000F7010008F7010008F7010008F701000830
:1000D000F7010008F7010008F7010008F701000820
:1000E000F7010008F7010008F7010008F701000810
:1000F000F7010008F7010008F7010008F701000800
:10010000F7010008F7010008F7010008F7010008EF
:10011000F7010008F7010008F7010008F7010008DF
:10012000F7010008F7010008F7010008F7010008CF
:10013000DFF80CD000F088F800480047ED10000808
:10014000E8310020224B19680868B0E8F00F80F30E
:100150000988BFF36F8F4FF0000080F311884EF0D5
:100160000D0E70470000000006480068006880F32C
:10017000088862B661B6BFF34F8FBFF36F8F00DFA1
:1001800000BF00BF08ED00E0EFF30980BFF36F8F01
:100190000F4B1A6820E9F00F106008B54FF05000BF
:1001A00080F31188BFF34F8FBFF36F8F02F0C0F958
:1001B0004FF0000080F31188BDE808401968086816
:1001C000B0E8F00F80F30988BFF36F8F704700BF6E
:1001D00058000020EFF30580704700000648804774
:1001E00006480047FEE7FEE7FEE7FEE7FEE7FEE71C
:1001F000FEE7FEE7FEE7FEE77D0F0008310100089D
:1002000040EA01039B0703D009E008C9121F08C098
:10021000042AFAD203E011F8013B00F8013B521E18
:10022000F9D27047D2B201E000F8012B491EFBD28F
:1002300070470022F6E710B513460A4604461946F1
:10024000FFF7F0FF204610BD064C074D06E0E068C2
:1002500040F0010394E8070098471034AC42F6D30D
:10026000FFF76AFFA8340008C8340008F0B501465B
:100270000A2591FBF5F605FB1615ECB20A2591FB54
:10028000F5F50A2695FBF6F706FB1755EBB2642544
:1002900091FBF5F595FBF6F706FB1755EAB213B996
:1002A0000AB90A220A2302B90A22002032E01B4DB1
:1002B00015F8205045F0F005C2EBC206184F3E4439
:1002C000365C0F2747EA06163540144E06F82050D4
:1002D000354615F8205045F00F05C3EBC306104F07
:1002E0003E44365C35400D4E06F82050354605EB51
:1002F00080056D7845F0F005C4EBC4063E44365CDD
:100300000F2747EA06163540044E06EB8006757047
:10031000451CE8B20728CADBF0BD00000800002039
:100320001C34000800BFFEE77047704703480068B0
:1003300003490978084401490860704748000020D3
:100340005000002010B50848006840F01000064931
:100350000860032000F0CCF8002000F007F800F05F
:1003600049F8002010BD00000020024070B588B0A0
:1003700004460025002600222146192000F07AF8C4
:10038000192000F067F800BF1648806940F400604B
:10039000144988610846806900F40060019000BF3C
:1003A00000BF02A903A800F0B7F800F0DDF8054689
:1003B0000D48B5FBF0F0461E0C480D49086040F2B0
:1003C000E7310B48C160466000210161816000F0A7
:1003D000DDF820B9064800F0F4F808B070BD01203F
:1003E000FBE700000010024040420F00002C0140DB
:1003F000D000002008B500BF1448806940F001001B
:10040000124988610846806900F00100009000BF31
:1004100000BF00BF0846C06940F08050C861084670
:10042000C06900F08050009000BF00BF00220F2183
:10043000901E00F01FF800BF0549486820F0E060FA
:1004400040F00070486000BF08BD0000001002408E
:100450000000014001460846002809DB00F01F03A8
:1004600001229A4043099B0003F1E023C3F80021D5
:1004700000BF70472DE9F05F80460D461646002705
:1004800000F000FE074639462A46334601F00700D1
:10049000C0F1070ABAF1040F02D94FF0040A01E0D3
:1004A000C0F1070AD14600F1040ABAF1070F02D2DF
:1004B0004FF0000A01E0A0F1030AD4464FF0010A10
:1004C0000AFA09FAAAF1010A0AEA020A0AFA0CFA75
:1004D0004FF0010B0BFA0CFBABF1010B0BEA030B1A
:1004E0004AEA0B042146404600F0D4FDBDE8F09FE7
:1004F00000BF00F00702064B19684FF6FF031940D2
:10050000044B0B4343EA0221014B196000BF7047C3
:100510000CED00E00000FA050F2202600D4A52685F
:1005200002F0030242600B4A526802F0F00282605D
:10053000084A526802F4E062C260064A526802F455
:100540006052D2080261044A126802F007020A608F
:10055000704700000010024000200240014800687F
:10056000704700005400002000B5FFF7F7FF044972
:100570004968C1F3C221034A515CC84000BD000074
:1005800000100240873400087047704710B50446D9
:100590000CB9012010BD94F83D0028B9002084F862
:1005A0003C00204600F00CF8022084F83D00211D9C
:1005B000206800F017FD012084F83D000020E9E7E5
:1005C000704701460868C06840F001000B68D860B9
:1005D0000868806800F00702062A05D008680068ED
:1005E00040F001000B68186000207047704710B59C
:1005F000044620680069C0F34000D8B12068C06894
:10060000C0F34000B0B16FF0020021680861012022
:1006100020772068806900F0030018B12046FFF7BA
:10062000E5FF05E0204600F0ADF8204600F0ABF80D
:100630000020207720680069C0F38000D8B12068CE
:10064000C068C0F38000B0B16FF004002168086199
:10065000022020772068806900F4407018B120469D
:10066000FFF7C4FF05E0204600F08CF8204600F0BC
:100670008AF80020207720680069C0F3C000D8B154
:100680002068C068C0F3C000B0B16FF008002168F6
:100690000861042020772068C06900F0030018B1C9
:1006A0002046FFF7A3FF05E0204600F06BF8204648
:1006B00000F069F80020207720680069C0F300107E
:1006C000D8B12068C068C0F30010B0B16FF010005E
:1006D00021680861082020772068C06900F4407014
:1006E00018B12046FFF782FF05E0204600F04AF8E7
:1006F000204600F048F8002020772068006900F0CC
:10070000010058B12068C06800F0010030B16FF0FE
:10071000010021680861204600F036F82068006971
:10072000C0F3C01058B12068C068C0F3C01030B129
:100730006FF08000216808612046FFF725FF2068E0
:100740000069C0F3801058B12068C068C0F3801001
:1007500030B16FF0400021680861204600F020F8B9
:1007600020680069C0F3401058B12068C068C0F329
:10077000401030B16FF02000216808612046FFF77B
:1007800004FF10BD7047704710B504460349206848
:10079000884201D1FFF7CAFD10BD0000002C0140C6
:1007A000704700BFFEE70000F0B501460A2591FB47
:1007B000F5F605FB1615ECB20A2591FBF5F50A26B0
:1007C00095FBF6F706FB1755EBB2642591FBF5F5A3
:1007D00095FBF6F706FB1755EAB213B90AB90A22D8
:1007E0000A2302B90A22002036E01D4D05EB8005E0
:1007F000AD7845F0F005C2EBC2061A4F3E44365CB8
:100800000F2747EA06163540154E06EB8006B570F1
:10081000134D05EB8005AD7845F00F05C3EBC3061E
:10082000104F3E44365C35400D4E06EB8006B570E9
:100830000B4D05EB8005ED7845F0F005C4EBC406E3
:100840003E44365C0F2747EA06163540044E06EB59
:100850008006F570451CE8B20728C6DBF0BD000035
:10086000080000201C34000800B585B0142168463B
:10087000FFF7DFFC042000F0B9F8082000F0B6F81C
:10088000102000F0B3F8202000F0B0F8402000F075
:10089000ADF832480090082001900220029000201C
:1008A000039069462E4800F0BDF842F22000009007
:1008B0000120019002200290002003906946284800
:1008C00000F0B0F848F28000009001200190022072
:1008D0000290002003906946224800F0A3F82248C5
:1008E00000900120019002200290002003906946B0
:1008F0001B4800F097F81D4800900120019002204D
:100900000290002003906946154800F08BF81348C8
:10091000009001200190022002900020039069467F
:100920000F4800F07FF8124800900120019002204B
:100930000290002003906946094800F073F844F2E1
:1009400040000090012001900220029000200390BE
:100950006946044800F066F805B000BD80008004D8
:10096000000C014000100140100010042000200481
:100970004000400470B50446082526E000BF184931
:10098000184800F0DFF800BF04F0800058B100BF45
:1009900000BF00BF00BF00BF00BF44F240011248CB
:1009A00000F0D4F80AE000BF00BF00BF00BF00BFE6
:1009B00000BF44F240010C4800F0C4F86006040E89
:1009C00000BF0749074800F0C1F8281EA5F1010142
:1009D000CDB2D3D144F24001034800F0B7F870BD66
:1009E00080008004000C01400010014008B505495A
:1009F00089690143034A9161114689690140009167
:100A000000BF08BD0010024008B5054989690143CF
:100A1000034A9161114689690140009100BF08BDF8
:100A2000001002402DE9F04102460B461868C0F361
:100A30000F2595FAA5F0B0FA80F47CE00120A040E3
:100A40002840002876D0082C04D240F2011000FA89
:100A500004F106E0A4F108004FF00116864046F0CC
:100A60008061586802EB116691FAA1FCBCFA8CFC1B
:100A70004FEA8C084FF00F0C0CFA08FC376827EA95
:100A80000C0791FAA1FCBCFA8CFC4FEA8C0C00FA22
:100A90000CFC47EA0C07376000BF1869D66826EAE5
:100AA00011260F0A97FAA7F7B7FA87F700FA07F7A0
:100AB0003E43D66000BF5868012802D05868092814
:100AC00038D1986802EB116691FAA1FCBCFA8CFC53
:100AD0004FEA8C084FF0030C0CFA08FC376827EA41
:100AE0000C0791FAA1FCBCFA8CFC4FEA8C0C00FAC2
:100AF0000CFC47EA0C07376000BFD86802EB1166B0
:100B000091FAA1FCBCFA8CFC4FEA8C084FF0040C63
:100B10000CFA08FC376827EA0C0791FAA1FCBCFA2A
:100B20008CFC4FEA8C0C00FA0CFC47EA0C0737608F
:100B300000BF00BF641C25FA04F000287FF47EAFDC
:100B4000BDE8F081C1F30F2242617047C1F30F226B
:100B5000026170470149086070470000540000209E
:100B600010B51020FFF750FF0420FFF74DFF10BD18
:100B700000BFFEE77047000070B500F0C9FB00241D
:100B800010E00C26002509E0304901EB8601085DE4
:100B9000FFF7F0FE301FC6B2681CC5B2042DF3DBB0
:100BA000601CC4B2042CECDB012000F0FFFB00F061
:100BB000C5FA002410E00D26002509E0234901EBC9
:100BC0008601085DFFF7D6FE301FC6B2681CC5B2AD
:100BD000042DF3DB601CC4B2042CECDB012000F01C
:100BE000E5FB00F0F9FA002410E00E26002509E0EC
:100BF000164901EB8601085DFFF7BCFE301FC6B247
:100C0000681CC5B2042DF3DB601CC4B2042CECDB01
:100C1000012000F0CBFB00F02DFB002410E00F269C
:100C2000002509E0094901EB8601085DFFF7A2FEF6
:100C3000301FC6B2681CC5B2042DF3DB601CC4B201
:100C4000042CECDB012000F0B1FB70BD080000209B
:100C5000F0B501460A2591FBF5F605FB1615ECB239
:100C60000A2591FBF5F50A2695FBF6F706FB1755C5
:100C7000EBB2642591FBF5F595FBF6F706FB1755EE
:100C8000EAB213B90AB90A220A2302B90A220020D9
:100C90003EE0214E00F1080516F8255045F00F05FD
:100CA000C2EBC2061D4F3E44365C35401A4F00F180
:100CB000080607F826503E4600F1080506EB8505B4
:100CC0006D7845F0F005C3EBC306144F3E44365C27
:100CD0000F2747EA061635400F4F00F1080607EBCD
:100CE000860675703E4600F1080506EB85056D78B1
:100CF00045F00F05C4EBC406084F3E44365C354052
:100D0000054F00F1080607EB86067570451CE8B232
:100D10000728BEDBF0BD0000080000201C340008DE
:100D2000F0B501460A2591FBF5F605FB1615ECB268
:100D30000A2591FBF5F50A2695FBF6F706FB1755F4
:100D4000EBB2642591FBF5F595FBF6F706FB17551D
:100D5000EAB213B90AB90A220A2302B90A22002008
:100D600040E0224E00F1080506EB8505AD7845F020
:100D70000F05C2EBC2061E4F3E44365C35401B4F8A
:100D800000F1080607EB8606B5703E4600F108053F
:100D900006EB8505ED7845F0F005C3EBC306144F6F
:100DA0003E44365C0F2747EA061635400F4F00F1E8
:100DB000080607EB8606F5703E4600F1080506EBCF
:100DC0008505ED7845F00F05C4EBC406084F3E4499
:100DD000365C3540054F00F1080607EB8606F570D6
:100DE000451CE8B20728BCDBF0BD0000080000206D
:100DF0001C340008002500BF002400BFFFF7BCFE24
:100E0000681C85B2322095FBF0F100FB11500028E0
:100E1000F4D12046FFF72AFA2046FFF7C5FC20460A
:100E2000FFF716FF2046FFF77BFF601CC4B2E5E723
:100E300000BF42F220000649C96881EA1021044A35
:100E4000D16000BF4FF47A7000F0B0FAF1E7000013
:100E5000000C014010B500BF502080F31188BFF393
:100E60004F8FBFF36F8F00BF01F0D0FF18B14FF06D
:100E700080500449086000BF002080F3118800BF43
:100E800010BD000004ED00E010B5002038490968ED
:100E900021F007010143364A116000BF00BF104630
:100EA000006800F0070008B1FFF73FFA00BF3148C3
:100EB000006840F480302F49086000BF00BF00BFC9
:100EC0002C480068C0F340400028F8D04FF4803030
:100ED0008100284A526822F47C1200F440330B430C
:100EE0001A43244B5A6000BF00BF1846006840F008
:100EF00080701946086000BF00BF00BF1D48006831
:100F0000C0F340600028F8D000201A49496821F059
:100F1000F0010143174A516000BF00BF1146496804
:100F200021F4E0610143516000BF00BF11464968F0
:100F300021F460510143516000BF0220114649680D
:100F400021F003010143516000BF00BF00BF094809
:100F5000406800F00C000828F8D10748FFF7FAFDB8
:100F60000020FFF703FA08B1FFF7DFF910BD00001A
:100F7000002002400010024000366E011148006857
:100F800040F001000F490860084640680E490840DB
:100F90000C494860084600680C4908400949086047
:100FA0000846006820F4802008600846406820F465
:100FB000FE0048604FF41F008860C80304490860C1
:100FC00070470000001002400000FFF8FFFFF6FE2F
:100FD00008ED00E010B50248FFF709FB10BD000066
:100FE000D000002010B50268204B98420ED0204B54
:100FF00098420BD0B0F1804F08D01E4B984205D0DC
:101000001D4B984202D01D4B984203D122F0700232
:101010004B681A43154B98420ED0154B98420BD093
:10102000B0F1804F08D0134B984205D0124B984234
:1010300002D0124B984203D122F44072CB681A437B
:1010400022F080034C6943EA040202608B68C362A9
:101050000B688362054B984202D0054B984201D140
:101060000B6903630123436110BD0000002C0140A4
:10107000003401400004004000080040000C004023
:1010800000BFFEE702480068C0F30220704700007E
:101090000CED00E010B5002804DB0A07130E054A2A
:1010A000135406E00A07140E034A00F00F031B1F37
:1010B000D45410BD00E400E018ED00E0EFF311801F
:1010C0007047EFF305807047EFF31080704702E040
:1010D00008C8121F08C1002AFAD1704770470020C3
:1010E00001E001C1121F002AFBD17047FFF72AF966
:1010F000FFF7CAFEFFF734FDFFF7B6FB00F072F909
:10110000084A0021084800F0AFF908490860084A79
:101110000021084800F0A8F90749086000F082F9AA
:1011200000BFFEE7D4330008F50D000800000020E2
:10113000F8330008310E00080400002010B5002428
:101140001F492048FFF7FEFC44F240011E48FFF70C
:10115000F9FC1E491B48FFF7F5FC00BF02E000BF89
:10116000601CC4B21E2CFADD48F280011648FFF75D
:10117000EDFC002402E000BF601CC4B21E2CFADDAE
:1011800013491048FFF7DEFC12490E48FFF7DAFC5E
:10119000002402E000BF601CC4B21E2CFADD48F23D
:1011A00080010948FFF7CEFC08490648FFF7CEFC4E
:1011B000002402E000BF601CC4B21E2CFADD10BD8A
:1011C00080008004000C0140001001401000100459
:1011D000200020044000400410B500241F4920488E
:1011E000FFF7B0FC44F240011E48FFF7ABFC1E497C
:1011F0001B48FFF7A7FC00BF02E000BF601CC4B2A1
:101200001E2CFADD48F280011648FFF79FFC0024EF
:1012100002E000BF601CC4B21E2CFADD1349104866
:10122000FFF794FC12490E48FFF78CFC002402E003
:1012300000BF601CC4B21E2CFADD48F280010948D0
:10124000FFF780FC08490648FFF780FC002402E015
:1012500000BF601CC4B21E2CFADD10BD80008004EB
:10126000000C014000100140100010042000200478
:101270004000400410B500241F492048FFF762FCDD
:1012800044F240011E48FFF75DFC1E491B48FFF772
:1012900059FC00BF02E000BF601CC4B21E2CFADD86
:1012A00048F280011648FFF751FC002402E000BF1D
:1012B000601CC4B21E2CFADD13491048FFF742FC33
:1012C00012490E48FFF742FC002402E000BF601CF8
:1012D000C4B21E2CFADD48F280010948FFF732FC47
:1012E00008490648FFF732FC002402E000BF601CFA
:1012F000C4B21E2CFADD10BD80008004000C014039
:1013000000100140100010042000200440004004A0
:1013100010B500241F492048FFF714FC44F2400197
:101320001E48FFF70FFC1E491B48FFF70BFC00BFD0
:1013300002E000BF601CC4B21E2CFADD48F280013E
:101340001648FFF703FC002402E000BF601CC4B293
:101350001E2CFADD13491048FFF7F8FB12490E481E
:10136000FFF7F4FB002402E000BF601CC4B21E2C97
:10137000FADD48F280010948FFF7E4FB0849064816
:10138000FFF7E4FB002402E000BF601CC4B21E2C87
:10139000FADD10BD80008004000C01400010014007
:1013A00010001004200020044000400470B50546E1
:1013B000FFF787FE48B9FFF787FE30B90848006895
:1013C000022805D1FFF77AFE10B16FF0050404E0A2
:1013D000002415B1284600F0CBFF204670BD000068
:1013E000A800002010B5FFF76CFE48B9FFF76CFEAF
:1013F00030B90B480068022805D1FFF75FFE10B135
:101400006FF0050409E00648006820B9012004498E
:101410000860002401E04FF0FF34204610BD0000BA
:10142000A800002010B5FFF74CFE48B9FFF74CFEAE
:1014300030B90C480068022805D1FFF73FFE10B113
:101440006FF005040CE007480068012806D102206F
:101450000449086001F008F8002401E04FF0FF346F
:10146000204610BDA80000202DE9F04786B0804638
:101470008946144600200490FFF723FE00285DD122
:10148000FFF722FE002859D12D480068022803D119
:10149000FFF714FE002851D1B8F1000F4ED080267E
:1014A0001825002005900DF1140A471E44B320684A
:1014B00008B1D4F800A0A06900B1A5692DB1382DFC
:1014C00003D8207900F0010018B1002006B0BDE873
:1014D000F087606908B160698608A06840B1E0687B
:1014E0005C2805D3206918B1606908B1012708E0BC
:1014F000A06830B9E06820B9206910B9002700E081
:101500000027012F0CD12169A0684B463246CDE956
:10151000005102905146404601F006FC04900DE057
:1015200067B904A8B2B24B465146CDE900504046D7
:1015300001F0C8FB012801D0002004900498C5E701
:10154000A80000202DE9F04105460E461648076820
:1015500016480068001D00F08BFD681C38B936B1D4
:1015600012480168091D124800F0D8FD1AE07C19E4
:101570000E4800684460BC4207D20C480168091D4F
:101580000C48006800F0B0FD0CE008480168091D37
:101590000948006800F0A8FD08480068844201D2AC
:1015A00006480460BDE8F0816C000020580000206F
:1015B00000060020600000205C0000208800002061
:1015C00010B5044600F0B6FD24480068401C2349CD
:1015D00008602348006840B9214804600846006854
:1015E00001280DD100F0F8F90AE01E48006838B96A
:1015F0001B480068C06AE16A884201D81848046044
:1016000019480068401C1849086008460068606472
:101610001649E06A0968884202D91449E06A0860FC
:10162000E16A01EB8101124A02EB8100211D00F009
:1016300075FD00F0A9FD0B48006868B10848006816
:10164000C06AE16A884207D24FF0805009490860B9
:10165000BFF34F8FBFF36F8F10BD000068000020F5
:10166000580000207400002084000020700000203A
:101670005001002004ED00E008B500F05BFD1248C9
:101680000068E8B9114800F01FFD114800F01CFD8A
:101690000E48104908600E480F49086000200F4BA3
:1016A0000F4A102100900A2001F006F80649086050
:1016B0000846006820B10BA10348006800F01CFE3A
:1016C00000F062FD08BD00009C0000201406002010
:1016D0002806002094000020980000203C060020EE
:1016E0008C060020546D72510000000010B516E009
:1016F00000F020FD0C48C068C468201D00F0B8FC54
:101700000A480068401E0949086009480068401EF0
:101710000749086000F038FD204600F05EF80448F4
:1017200000680028E4D110BDEC050020680000200E
:101730006400002070B504460D46206C70B1216C29
:10174000E0680844E0606168E068884201D320688E
:10175000E0602846226CE168FEF752FD70BD2DE97D
:10176000F04104460F4615464FF00008A66B206C6A
:1017700040B9206860BB606801F0EAFB8046002049
:10178000606025E07DB93946226CA068FEF738FD1F
:10179000216CA0680844A060D4E90110884217D3E6
:1017A0002068A06014E03946226CE068FEF728FD4E
:1017B000216CE068401AE0602168E068884203D24A
:1017C000216C6068401AE060022D01D106B1761EDE
:1017D000701CA0634046BDE8F08110B5044694F843
:1017E000590030B9206B00F0EDFC204600F0EAFC17
:1017F0001AE094F85900012803D1204600F0E2FCD9
:1018000012E094F85900022801D1012000E00020E4
:1018100050B900BF502080F31188BFF34F8FBFF342
:101820006F8F00BF00BFFEE710BD00000146084AF1
:10183000126812680AB9012200E000220A600A68F0
:1018400022B9034A1268D268106800E0002070478D
:101850009400002030B54FF40053174800F00704FF
:101860002CB1C01D20F00700134C041B1B1B0246AB
:10187000124C22600024114D6C60D018083820F002
:1018800007000F4C206000240D4D2D686C600C4D3E
:101890002D682C601146441A4C60094C24680C6079
:1018A000084D4C682C60084D4C682C604FF000448B
:1018B000064D2C6030BD0000E40D0020AC0000207F
:1018C000B4000020BC000020B8000020C0000020B0
:1018D00000BFFFF70BFF064800680128F9D94FF059
:1018E000805004490860BFF34F8FBFF36F8FF0E75C
:1018F0005001002004ED00E02DE9F04106460D46C0
:1019000017469846069C0DB9246000E02760E66300
:1019100025640121204600F03FFF84F84C80BDE89B
:10192000F0812DE9F05F82460F4690469B460A9E65
:101930000C9C4FEA8801A522206BFEF773FCA8F1EE
:101940000100216B01EB800929F0070909F007006C
:1019500008B9012000E0002050B900BF502080F3FA
:101960001188BFF34F8FBFF36F8F00BF00BFFEE73B
:10197000002507E0795D04F134004155785D00B938
:1019800002E06D1C102DF5D300BF0021432001554E
:10199000382E00D33726E662E66400202065201D3D
:1019A00000F09FFB04F1180000F09BFB2461C6F1DE
:1019B0003800A06164620020606584F858005A46CF
:1019C0005146484600F042FB20600B9808B10B9846
:1019D0000460BDE8F09F000010B5002407E004EBB0
:1019E00084010F4A02EB810000F06EFB641C382C6E
:1019F000F5D30C4800F068FB0B4800F065FB0B4882
:101A000000F062FB0A4800F05FFB0A4800F05CFB54
:101A100004480949086004480849086010BD0000EE
:101A200050010020B0050020C4050020D80500208A
:101A3000EC050020000600205C0000206000002073
:101A400010B50146164800E0006803688B42FBD3DE
:101A50000246436813448B4204D143684C682344D4
:101A6000436001460A464B6813440468A34211D1FF
:101A70000C4C03682468A34208D04B68046864686F
:101A800023444B6003681B680B6005E0054B1B6833
:101A90000B6001E003680B60884200D0016010BD5C
:101AA000AC000020B40000202DE9F04104460D46B2
:101AB00016461F464FF0000865602461B5420CD8F9
:101AC000F01BA169884202D34FF0010811E0211DEB
:101AD0000948006800F008FB0BE0BE4204D2BD429A
:101AE00002D34FF0010804E0211D0448006800F013
:101AF000FBFA4046BDE8F0819800002094000020E9
:101B000070B5054600F016FBA86B08B9012400E08B
:101B1000002400F039FB204670BD70B5054600F08A
:101B200009FBA86BE96B884201D1012400E0002485
:101B300000F02AFB204670BDF8B505460F46164852
:101B40000068C068C468201D00F092FAE0690128AE
:101B50001DD1A06941192B463A462046FFF7A4FF44
:101B6000A8B1002003462A4601460090204601F015
:101B70004BFB064656B900BF502080F31188BFF3D7
:101B80004F8FBFF36F8F00BF00BFFEE700BF20463F
:101B9000616A8847F8BD000094000020F0B587B066
:101BA00082E00398002811DA04AE56B900BF502035
:101BB00080F31188BFF34F8FBFF36F8F00BF00BF5B
:101BC000FEE7D6E90020B168904700BF03980028DF
:101BD0006ADB059C606908B9012000E0002010B9AB
:101BE000201D00F045FA02A800F0C0F80546039851
:101BF0000A2857D2DFE800F009050731334F0608FD
:101C0000323400BF00BF00BF00BF0498A269811832
:101C100003462A462046FFF747FFE8B12046616A9F
:101C20008847E069012817D1002000900498A16935
:101C3000421800231946204601F0E6FA074657B934
:101C400000BF502080F31188BFF34F8FBFF36F8F19
:101C500000BF00BFFEE700BF25E000BF23E000BFDC
:101C60000498A061A06908B1012000E0002050B9EB
:101C700000BF502080F31188BFF34F8FBFF36F8FE9
:101C800000BF00BFFEE7A06941192B462A46204647
:101C9000FFF70AFF07E094F82C0010B9204600F087
:101CA00091FA00E000BF00BF002203A904480068C9
:101CB00000F00EFF00287FF474AF07B0F0BD000005
:101CC0009C000020F8B505460C4600F029FC68464B
:101CD00000F04CF80646009820BB44B9B54206D83F
:101CE00001F0D4F931462846FFF726FF1CE03CB14D
:101CF0000E480068006808B9012000E00020044692
:101D0000A91B22460A48006800F00CFB01F0BEF94E
:101D100050B94FF0805007490860BFF34F8FBFF3B1
:101D20006F8F01E001F0B2F9F8BD000098000020CB
:101D30009C00002004ED00E00A490968096809B91F
:101D4000012100E0002121B14FF0FF31064A11606E
:101D500006E004490968C968C868034A4168116017
:101D6000704700005C0000208800002070B5044629
:101D700001F046F8054607480068854204D200F0A5
:101D80000BF80120206001E0002020600148056080
:101D9000284670BDA40000202DE9F84332E0244815
:101DA0000068C068056822480068C068C468201DD3
:101DB00000F05EF92046616A8847E069012821D178
:101DC000A0694619AE4207D966602461211D1848F2
:101DD000006800F089F915E0002003462A46014614
:101DE0000090204601F010FA074657B900BF502076
:101DF00080F31188BFF34F8FBFF36F8F00BF00BF19
:101E0000FEE700BF0A480068006808B9012000E04A
:101E100000200028C3D00648D0F80080054800689C
:101E2000034908600348C0F80080BDE8F88300005B
:101E300094000020980000200E480068401C08B95B
:101E4000012000E0002050B900BF502080F311882D
:101E5000BFF34F8FBFF36F8F00BF00BFFEE700BF20
:101E6000502080F31188BFF34F8FBFF36F8F00BFF7
:101E700000BFFEE7C400002008B500BF6846FFF7BA
:101E8000D5FC044620460099FFF71CFFFFF786FEAD
:101E9000F4E770B5044600F04DF994F9455010E0B0
:101EA000606A08B9012000E0002038B904F124007C
:101EB00001F0A0F818B100F095FA00E003E0681E08
:101EC00045B2002DECDC00BFFF2084F8450000F097
:101ED0005BF900F02FF994F9445010E0206908B93B
:101EE000012000E0002048B904F1100001F082F860
:101EF00008B100F077FA681E45B200E001E0002D5D
:101F0000ECDC00BFFF2084F8440000F03DF970BD18
:101F10002DE9F04104464FF0000800F001FB46486F
:101F2000006808B9FFF796FC444800682040002884
:101F30006BD1D4B1083404F00700B0B104F007004D
:101F4000C0F10800044404F0070008B9012000E0D3
:101F5000002050B900BF502080F31188BFF34F8F8D
:101F6000BFF36F8F00BF00BFFEE7002C4DD0344899
:101F70000068844249D8334E3046056801E02E4659
:101F80002D686868A04202D228680028F7D12A4844
:101F90000068854239D0306800F108082868306050
:101FA0006868001B102819D92F1907F0070008B915
:101FB000012000E0002050B900BF502080F31188BC
:101FC000BFF34F8FBFF36F8F00BF00BFFEE768689E
:101FD000001B78606C603846FFF732FD184968686E
:101FE0000968081A16490860084600681649096811
:101FF000884203D212480068134908600F49686894
:102000000968084368600020286001F03FF808F084
:10201000070008B9012000E0002050B900BF50209F
:1020200080F31188BFF34F8FBFF36F8F00BF00BFE6
:10203000FEE74046BDE8F081B4000020C00000206B
:10204000B8000020AC000020BC000020001F4FF0B2
:1020500080730360001F21F001030360001F034B26
:10206000036014380260203870470000391E0008F1
:1020700001460A69D1E901309860D1E9010358604D
:102080005068884201D1886850600020086110685B
:10209000401E106010687047034B0360034B0B60D9
:1020A00080231360704700002C0700208807002061
:1020B000034B0360034B0B604FF480731360704756
:1020C00088090020E409002000F1080141604FF078
:1020D000FF31816000F10801C160016100210160F0
:1020E000704700210161704710B502460B685C1C07
:1020F0000CB9106907E002F1080000E0406844688C
:1021000024689C42FAD944684C604C68A16088609D
:1021100041600A611468641C146010BD42684A6022
:1021200093688B60936859609160086103685B1CD9
:102130000360704700BF502080F31188BFF34F8FBA
:10214000BFF36F8F00BF0E480068401C0C49086049
:1021500008460068012812D10A480068C0B208B9D0
:10216000012000E0002050B900BF502080F311880A
:10217000BFF34F8FBFF36F8F00BF00BFFEE7704705
:10218000C400002004ED00E00D48006850B900BF15
:10219000502080F31188BFF34F8FBFF36F8F00BFC4
:1021A00000BFFEE706480068401E05490860084673
:1021B000006820B9002080F3118800BF00BF70477D
:1021C000C400002070B506463546002E3FD0083DBD
:1021D0002C461F4960680968084008B1012000E0EA
:1021E000002050B900BF502080F31188BFF34F8FFB
:1021F000BFF36F8F00BF00BFFEE7206808B9012062
:1022000000E0002050B900BF502080F31188BFF3D8
:102210004F8FBFF36F8F00BF00BFFEE70C496068B0
:102220000968084098B1206888B909496068096858
:102230008843606000F074F90649606809680844E2
:10224000044908602046FFF7FBFB00F01FFF70BD4C
:10225000C0000020B800002000204FF0E0210861FD
:102260008861064800684FF47A71B0FBF1F0401EB7
:102270004FF0E021486107200861704754000020BA
:1022800070B5FDF7A7FF0446102C16D304F1E0202B
:1022900090F8F05315480078854201DB012000E0FA
:1022A000002050B900BF502080F31188BFF34F8F3A
:1022B000BFF36F8F00BF00BFFEE70D48006800F45A
:1022C000E0600C490968884201D8012000E0002044
:1022D00050B900BF502080F31188BFF34F8FBFF378
:1022E0006F8F00BF00BFFEE770BD0000C800002078
:1022F0000CED00E0CC000020024600200BE0084B73
:1023000053F8303033B9064B43F8301003EBC003B9
:102310005A6002E0401C0828F1D300BF704700005B
:10232000100100202DE9F04105460E4617462C46C7
:10233000FFF700FF94F94400401C10B9002084F816
:10234000440094F94500401C10B9002084F8450071
:10235000FFF71AFFA06B28B93A46314604F1240072
:1023600000F062F82046FFF794FDBDE8F081000020
:1023700070B504460025D4B11248006808B90120A0
:1023800000E0002050B900BF502080F31188BFF357
:102390004F8FBFF36F8F00BF00BFFEE700F0C0F8A4
:1023A00000212046FFF7CEF800F070FE05463DB94B
:1023B0004FF0805004490860BFF34F8FBFF36F8F19
:1023C00070BD00009000002004ED00E003490968A2
:1023D00001600349096841607047000080000020E7
:1023E0006C00002001200149086070477C0000203B
:1023F00070B504460D4654B900BF502080F31188D3
:10240000BFF34F8FBFF36F8F00BF00BFFEE70548DC
:10241000016818312046FFF767FE01212846FFF7C3
:1024200091F870BD5800002070B505460E46144660
:1024300055B900BF502080F31188BFF34F8FBFF311
:102440006F8F00BF00BFFEE70648016818312846BD
:10245000FFF764FE0CB14FF0FF3621463046FFF720
:1024600071F870BD5800002010B586B000200590AE
:10247000049003AA04A905A8FFF70EFE0022DDE9D7
:1024800004101346CDE9002102901EA11F48039AB3
:1024900000F04AFC1E4908600846006808B10124A3
:1024A00000E00024012C02D100F072FE0446012C51
:1024B00015D100BF502080F31188BFF34F8FBFF3B9
:1024C0006F8F00BF4FF0FF301249086001201249A2
:1024D000086000201149086000F072F810E0601CEC
:1024E00008B1012000E0002050B900BF502080F367
:1024F0001188BFF34F8FBFF36F8F00BF00BFFEE7A0
:1025000006B010BD49444C4500000000D118000839
:102510008C00002088000020740000206C00002047
:1025200002480068401C0149086070479000002084
:102530001E48006818B101201D49086034E00020E1
:102540001B4908601B4801680CE051B900BF5020CE
:1025500080F31188BFF34F8FBFF36F8F00BF00BFB1
:10256000FEE7491E01EB8100134A52F8200008B92A
:10257000012000E000200028E7D101EB81020E4B92
:1025800003EB820042685268426000F1080243682F
:10259000934202D14268526842604268D268074B57
:1025A0001A600448016000BF7047000090000020DE
:1025B0007C00002070000020500100205800002006
:1025C0001CB53849084600780190FF200A46107073
:1025D0000846007800909DF8000000F0F0009DF89B
:1025E0000020904201D1012000E0002050B900BF3E
:1025F000502080F31188BFF34F8FBFF36F8F00BF60
:1026000000BFFEE79DF8000000F05000264A107061
:102610000720264A106009E024480068401E234A2B
:1026200010609DF800004006000E00909DF800002C
:1026300000F080008028EFD01C480068C0F107003F
:10264000042801D1012000E0002050B900BF502033
:1026500080F31188BFF34F8FBFF36F8F00BF00BFB0
:10266000FEE7124800680002104A10601046008819
:1026700000F4E06010600B4A019810700C4800688C
:1026800040F470000A4908600846006840F0704055
:102690000860FFF7E1FD002006490860FDF764FDD2
:1026A00000201CBD00E400E0C8000020CC00002099
:1026B00020ED00E0C40000202DE9F84380460E46DE
:1026C00017461D46DDF82090B8F1000F01D001201B
:1026D00000E0002050B900BF502080F31188BFF304
:1026E0004F8FBFF36F8F00BF00BFFEE70DB101201A
:1026F00000E0002050B900BF502080F31188BFF3E4
:102700004F8FBFF36F8F00BF00BFFEE707B10EB161
:10271000012000E0002050B900BF502080F3118854
:10272000BFF34F8FBFF36F8F00BF00BFFEE707B946
:102730000EB9012000E0002050B900BF502080F306
:102740001188BFF34F8FBFF36F8F00BF00BFFEE74D
:10275000502000900098502801D1012000E0002076
:1027600050B900BF502080F31188BFF34F8FBFF3E3
:102770006F8F00BF00BFFEE72C464CB1012084F8EC
:1027800046004B463A46314640460094FFF7B4F8BF
:102790002046BDE8F883000070B505460E462C467D
:1027A00054B900BF502080F31188BFF34F8FBFF39F
:1027B0006F8F00BF00BFFEE7FFF7BCFCD4E90F122C
:1027C000206801FB020060600020A0632068A06018
:1027D000E06B401E226C216800FB0210E060FF20CD
:1027E00084F8440084F845009EB9206908B90120A6
:1027F00000E00020A8B904F1100000F0FBFB80B15C
:102800004FF0805009490860BFF34F8FBFF36F8FBF
:1028100007E004F11000FFF757FC04F12400FFF774
:1028200053FCFFF7B1FC012070BD000004ED00E097
:102830002DE9FF4383B0064688461D464FF0000948
:10284000344654B900BF502080F31188BFF34F8F36
:10285000BFF36F8F00BF00BFFEE7B8F1000F01D1DB
:10286000206C08B9012000E0002050B900BF5020C2
:1028700080F31188BFF34F8FBFF36F8F00BF00BF8E
:10288000FEE7022D02D1E06B012801D1012000E01A
:10289000002050B900BF502080F31188BFF34F8F44
:1028A000BFF36F8F00BF00BFFEE700F099FA08B9D1
:1028B000059808B9012000E0002050B900BF502061
:1028C00080F31188BFF34F8FBFF36F8F00BF00BF3E
:1028D000FEE700BFFFF72EFCA06BE16B884201D33F
:1028E000022D28D12A4641462046FEF738FF0746EA
:1028F000606A08B9012000E0002068B904F12400F2
:1029000000F078FB88B14FF0805032490860BFF387
:102910004F8FBFF36F8F08E03FB14FF080502D49CC
:102920000860BFF34F8FBFF36F8FFFF72DFC0120BF
:1029300007B0BDE8F083059818B9FFF725FC002023
:10294000F6E7B9F1000F04D101A8FFF73FFD4FF002
:102950000109FFF719FCFFF7E3FDFFF7EBFB94F923
:102960004400401C10B9002084F8440094F945004C
:10297000401C10B9002084F84500FFF705FC05A9AC
:1029800001A800F059F9F0B92046FFF7C6F8A0B148
:1029900004F110000599FFF72BFD2046FFF779FAA7
:1029A00000F074FB002895D14FF080500949086071
:1029B000BFF34F8FBFF36F8F8CE72046FFF769FAA5
:1029C00000F064FB86E72046FFF763FA00F05EFB49
:1029D0000020ADE704ED00E02DE9F05F07468A46F0
:1029E00090461E463C4654B900BF502080F31188E3
:1029F000BFF34F8FBFF36F8F00BF00BFFEE7BAF189
:102A0000000F01D1206C08B9012000E0002050B96E
:102A100000BF502080F31188BFF34F8FBFF36F8F3B
:102A200000BF00BFFEE7022E02D1E06B012801D1FA
:102A3000012000E0002050B900BF502080F3118831
:102A4000BFF34F8FBFF36F8F00BF00BFFEE7FFF7ED
:102A500017FC00BF5021EFF3118081F31188BFF301
:102A60004F8FBFF36F8F00BF0546A06BE16B8842AD
:102A700001D3022E23D194F945B032465146204667
:102A8000FEF76DFE0BF1010088B9606A08B90120FC
:102A900000E0002080B904F1240000F0ABFA58B146
:102AA000B8F1000F08D00120C8F8000004E00BF1D5
:102AB000010040B284F845004FF0010901E04FF0F9
:102AC000000900BF85F3118800BF4846BDE8F09FAC
:102AD0002DE9F74183B005460E464FF000082C461D
:102AE00054B900BF502080F31188BFF34F8FBFF35C
:102AF0006F8F00BF00BFFEE70EB9206C08B9012040
:102B000000E0002050B900BF502080F31188BFF3CF
:102B10004F8FBFF36F8F00BF00BFFEE700F060F97B
:102B200008B9059808B9012000E0002050B900BF9D
:102B3000502080F31188BFF34F8FBFF36F8F00BF1A
:102B400000BFFEE700BFFFF7F5FAA76BF7B131460C
:102B50002046FEF7EFFD781EA063206908B901202A
:102B600000E0002060B904F1100000F043FA38B131
:102B70004FF080502F490860BFF34F8FBFF36F8F26
:102B8000FFF702FB012006B0BDE8F081059818B9F7
:102B9000FFF7FAFA0020F6E7B8F1000F04D101A818
:102BA000FFF714FC4FF00108FFF7EEFAFFF7B8FC4F
:102BB000FFF7C0FA94F94400401C10B9002084F8D3
:102BC000440094F94500401C10B9002084F84500E9
:102BD000FFF7DAFA05A901A800F02EF8F0B92046AF
:102BE000FEF78EFFA0B104F124000599FFF700FC69
:102BF0002046FFF74EF900F049FA0028A3D14FF024
:102C000080500C490860BFF34F8FBFF36F8F9AE776
:102C10002046FFF73EF900F039FA94E72046FFF727
:102C200038F900F033FA2046FEF76AFF00288AD010
:102C30000020A8E704ED00E070B505460C4655B944
:102C400000BF502080F31188BFF34F8FBFF36F8F09
:102C500000BF00BFFEE754B900BF502080F31188C9
:102C6000BFF34F8FBFF36F8F00BF00BFFEE7FFF7CB
:102C700061FA124802686868131A2068401C08B993
:102C8000002617E00E4928680968884204D0686861
:102C9000904201D801260DE02068984207D92068AB
:102CA000C01A20602846FFF791FB002602E00020B2
:102CB00020600126FFF768FA304670BD6C000020E6
:102CC000800000202DE9FF4F85B0804689461746D9
:102CD000DDE912ABB800FFF71BF9064656B15C20E0
:102CE000FFF716F904460CB1266304E03046FFF7FF
:102CF00069FA00E000248CB1002084F85900CDE985
:102D000000ABCDE902403A4649464046089BFEF7F3
:102D100008FE2046FEF754FC012501E04FF0FF3588
:102D2000284609B0BDE8F08F2DE9F04F85B0074681
:102D3000884691469A46DDE90EB6109C0EB10120F8
:102D400000E0002050B900BF502080F31188BFF38D
:102D50004F8FBFF36F8F00BF00BFFEE70CB10120A4
:102D600000E0002050B900BF502080F31188BFF36D
:102D70004F8FBFF36F8F00BF00BFFEE75C20039053
:102D800003985C2801D1012000E0002050B900BF69
:102D9000502080F31188BFF34F8FBFF36F8F00BFB8
:102DA00000BFFEE7B4B1AEB125462C462E6302202B
:102DB00085F85900002004A953464A46CDE900B1E0
:102DC000CDE9025041463846FEF7ABFD2846FEF7F6
:102DD000F7FB01E000200490049805B0BDE8F08FF7
:102DE0000549096809B9012005E00449096809B9DC
:102DF000022000E0002070477400002090000020B6
:102E000001490868704700006C0000202DE9F0417E
:102E10004FF0000843480068002876D14248006817
:102E2000451C4148056015BB40480068006808B96A
:102E3000012000E0002050B900BF502080F311882D
:102E4000BFF34F8FBFF36F8F00BF00BFFEE7374860
:102E500007683748006835490860354807603548D5
:102E60000068401C33490860FEF766FF00BF324827
:102E7000006885423BD300BF2C480068006808B951
:102E8000012000E0002020B14FF0FF302A49086007
:102E90002CE026480068C068C4686668B54202D263
:102EA0002548066022E0201DFFF7E2F8A06A18B16D
:102EB00004F11800FFF7DCF82049E06A096888424D
:102EC00002D91E49E06A0860E16A01EB81011C4AEF
:102ED00002EB8100211DFFF721F91A49E06A096818
:102EE000C96A8842C8D34FF00108C5E700BF15483A
:102EF0000068C06A00EB8000114951F820000128E9
:102F000001D94FF0010805E0FFE70F480068401CB9
:102F10000D4908600D48006808B14FF001084046AF
:102F2000BDE8F081900000206C0000205C000020D3
:102F30006000002080000020880000207000002039
:102F40005001002058000020780000207C00002064
:102F500070B505462C460026002D43D02248006857
:102F6000844201D1012000E0002050B900BF502070
:102F700080F31188BFF34F8FBFF36F8F00BF00BF87
:102F8000FEE7206D50B900BF502080F31188BFF3D9
:102F90004F8FBFF36F8F00BF00BFFEE7206D401E55
:102FA0002065E16CE06A88421CD0206DD0B9201DFC
:102FB000FFF75EF8E06CE062E06AC0F13800A06103
:102FC0000A49E06A0968884202D90849E06A08604B
:102FD000E16A01EB8101064A02EB8100211DFFF746
:102FE0009DF80126304670BD58000020700000207A
:102FF0005001002070B50646F068C46854B900BF9F
:10300000502080F31188BFF34F8FBFF36F8F00BF45
:1030100000BFFEE704F11800FFF72AF81548006822
:10302000A0B9201DFFF724F81349E06A0968884217
:1030300002D91149E06A0860E16A01EB81010F4A97
:1030400002EB8100211DFFF769F804E004F118018B
:103050000B48FFF763F80B49E06A0968C96A8842C0
:1030600004D9012501200849086000E00025284610
:1030700070BD000090000020700000205001002072
:10308000D8050020580000207C00002070B50024E6
:1030900000263648006850B900BF502080F31188E0
:1030A000BFF34F8FBFF36F8F00BF00BFFEE7FFF787
:1030B00041F82E480068401E2C4908600846006808
:1030C00000284ED12A48006800284AD023E0294829
:1030D000C068C46804F11800FEF7CAFF201DFEF79F
:1030E000C7FF2549E06A0968884202D92249E06A97
:1030F0000860E16A01EB8101204A02EB8100211D99
:10310000FFF70CF81E49E06A0968C96A884202D3D1
:1031100001201C4908601748006808B9012000E038
:1031200000200028D3D00CB1FEF706FE1648056833
:1031300065B100BFFFF76AFE10B1012011490860B8
:103140006D1E002DF6D100200F4908600D48006863
:1031500038B1012630070D490860BFF34F8FBFF328
:103160006F8FFFF711F8304670BD0000900000200F
:1031700068000020D80500207000002050010020C9
:10318000580000207C0000207800002004ED00E0C2
:1031900010B586B00024FEF76FFA16480068D0B16B
:1031A00000200590049003AA04A905A8FEF780FF5B
:1031B0000222DDE904100023CDE9002102900EA1D6
:1031C0000F48039AFFF7B0FD0E49086008460068F3
:1031D00000B1012400BF54B900BF502080F3118812
:1031E000BFF34F8FBFF36F8F00BF00BFFEE72046D6
:1031F00006B010BD9C000020546D72205376630011
:10320000791E0008A00000202DE9FF4704460D4666
:1032100016461F46DDF830804FF0000954B900BF54
:10322000502080F31188BFF34F8FBFF36F8F00BF23
:1032300000BFFEE71448006810B3009501960294A1
:10324000062D15DAFFF7CCFD022808D100234246EF
:1032500069460D480068FFF7EBFA814610E000234D
:103260001A46694608480068FFF7E2FA814607E017
:1032700000233A46694604480068FFF7ADFB8146E3
:10328000484604B0BDE8F0879C000020081C30448C
:10329000586C803C3C3C00FFFFFFFFFFFFFFFFFF3F
:1032A000FFFFFF003C3C3CFFFFFFFFFFFFFFFFFF76
:1032B000FFFFFF003C003CFFFFFFFFFFFFFFFFFFA2
:1032C000FFFFFF3C003C00FFFFFFFFFFFFFFFFFF92
:1032D000FFFFFFFFFFFFFFFEFEFEFC7F7F7F7FFF04
:1032E000FFFFFFFFFFFFFFFEFEFEF87F7F7F7FFFF8
:1032F000FFFFFFFFFFFFFFFEFEFEF87F7F7F7FFFE8
:10330000FFFFFFFFFFFFFFFEFEFEFE7F7F7F7FFFD1
:10331000FFFFFFFFFFFFFFF9F9FFF8FFFFCF0FFFF0
:10332000FFFFFFFFFFFFFFF8F9FFFF0FFFCFCFFF0A
:10333000FFFFFFFFFFFFFFF8F9F8FF0FFF0FCFFFC1
:10334000FFFFFFFFFFFFFFF9F8FFF8FF0FCF0FFFB1
:10335000FFFFFFFFFFFFFFFFFFFFF8CFCFCF0FFF04
:10336000FFFFFFFFFFFFFFF8FFFFFF0FCFCFCFFFF4
:10337000FFFFFFFFFFFFFFF8FFF8FF0FCF0FCFFFAB
:10338000FFFFFFFFFFFFFFFFF8FFF8CF0FCF0FFF9B
:10339000FFFFFFF6F0666666006E6E96F0CCCD66B7
:1033A000006463F6F6006666660E6E969600CD665D
:1033B000660C62F0F6FF000066FF0EF096FF01005B
:1033C00066FF0DF0FF660000FF6E0EF0FFCD0100FE
:1033D000FF6B0F009C34000800000000000000009C
:1033E00000000000000000000008000018000000BD
:1033F0000000000000000000903400080000000001
:1034000000000000000000000000000000080000B4
:10341000080000000000000000000000F0F6F6F6D2
:10342000F6F6F0FDF9FDFDFDFDFDF0FEFEF0F7F70F
:10343000F0F0FEFEF0FEFEF0F6F6F6F0FEFEFEF018
:10344000F7F7F0FEFEF0F0F7F7F0F6F6F0F0FEFE1C
:10345000FEFEFEFEF0F6F6F0F6F6F0F0F6F6F0FE02
:10346000FEF0FFFFFFFFFFFFFFFFF3F2FDFBF4FCA9
:10347000FFF9F9FFF9F9FF0000000000000000016A
:10348000020304060708090000000001020304000B
:103490006D795461736B30320000000064656661C1
:1034A000756C745461736B00C83400080000002010
:1034B000D0000000CE10000898350008D000002091
:1034C00018310000DE1000080000000000000000BD
:1034D000FFFFFFFFFFFFFFF3FFFFFFF2FFFFFFFD17
:1034E000FFFFFFFBFFFFFFF4FFFFFFFCFFFFFFFFFE
:1034F000FFFFFFFFFFFFFFFFFFFF9FFFFFFF9FFF9C
:10350000FFFFFFFFFFFF9FFFFFFF9FFFFFFFFFFF8B
:103510000000000010000000010000000024F40082
:10352000000000000000000000000000000000009B
:10353000000000000000000000000000000000008B
:10354000000000000000000000000000000000007B
:10355000000000000000000000000000000000006B
:10356000000000000000000000000000000000005B
:10357000000000000000000000000000000000004B
:10358000000000000000000000000000AAAAAAAA93
:08359000000000000000000033
:0400000508000131BD
:00000001FF
