:020000040800F2
:10000000581D0020DD0100087B0500087102000872
:10001000790500086D02000855080008000000007E
:100020000000000000000000000000004501000882
:100030006F02000800000000890100086D07000839
:10004000F7010008F7010008F7010008F7010008B0
:10005000F7010008F7010008F7010008F7010008A0
:10006000F7010008F7010008F7010008F701000890
:10007000F7010008F7010008F7010008F701000880
:10008000F7010008F7010008F7010008F701000870
:10009000F7010008F7010008F7010008F701000860
:1000A000F7010008F7010008F7010008F701000850
:1000B000F7010008F7010008F7010008F701000840
:1000C000F7010008F7010008F7010008F701000830
:1000D000F7010008F7010008F7010008F701000820
:1000E000F7010008F7010008F7010008F701000810
:1000F000F7010008F7010008F7010008F701000800
:10010000F7010008F7010008F7010008F7010008EF
:10011000F7010008F7010008F7010008F7010008DF
:10012000F7010008F7010008F7010008F7010008CF
:10013000DFF80CD000F088F8004800479508000868
:10014000581D0020224B19680868B0E8F00F80F3B2
:100150000988BFF36F8F4FF0000080F311884EF0D5
:100160000D0E70470000000006480068006880F32C
:10017000088862B661B6BFF34F8FBFF36F8F00DFA1
:1001800000BF00BF08ED00E0EFF30980BFF36F8F01
:100190000F4B1A6820E9F00F106008B54FF05000BF
:1001A00080F31188BFF34F8FBFF36F8F01F078FAA0
:1001B0004FF0000080F31188BDE808401968086816
:1001C000B0E8F00F80F30988BFF36F8F704700BF6E
:1001D00008000020EFF305807047000006488047C4
:1001E00006480047FEE7FEE7FEE7FEE7FEE7FEE71C
:1001F000FEE7FEE7FEE7FEE70D0800083101000814
:1002000040EA01039B0703D009E008C9121F08C098
:10021000042AFAD203E011F8013B00F8013B521E18
:10022000F9D27047D2B201E000F8012B491EFBD28F
:1002300070470022F6E710B513460A4604461946F1
:10024000FFF7F0FF204610BD064C074D06E0E068C2
:1002500040F0010394E8070098471034AC42F6D30D
:10026000FFF76AFFDC200008FC200008FEE770476B
:10027000FEE700002DE9F04F85B014216846FFF736
:10028000D8FF042000F0E0F8082000F0DDF810208E
:1002900000F0DAF8202000F0D7F8402000F0D4F881
:1002A0004E4800900024082002260394CDE9010660
:1002B00069464B4800F0D4F842F22000012503942F
:1002C0008DE861006946464800F0CAF840F202270E
:1002D000DFF81081CDE90264CDE90075694640463A
:1002E00000F0BEF840F20449CDE90264CDE9009582
:1002F0006946404600F0B4F840F6080BCDE90264C8
:10030000CDE900B56946404600F0AAF840F2011870
:10031000CDE90264CDE900856946314800F0A0F8D6
:100320004FF0030ACDE902A4CDE9007569462C48D7
:1003300000F096F82C4803948DE86100694628483F
:1003400000F08EF8294803948DE86100694624483E
:1003500000F086F8CDE90264CDE9008569462448BD
:1003600000F07EF8CDE90264CDE9007569462048C9
:1003700000F076F8CDE90264CDE9009569461C48A5
:1003800000F06EF8CDE90264CDE900B56946184881
:1003900000F066F8F80003948DE8210469461448DB
:1003A00000F05EF8B80103948DE8610069461048DA
:1003B00000F056F80F4803948DE8610069460E4836
:1003C00000F04EF8CDE90264CDE9008569460B489E
:1003D00000F046F805B0BDE8F08F00008000800412
:1003E000000C01400008014002000204080008045B
:1003F00000100140100010040014014000180140DA
:1004000030B508221346022408490BE000BF4C61B6
:1004100000BF050601D50B6100E04B614006000EF0
:1004200000BF0C61521ED2B2F0D230BD00100140AC
:10043000044908B58A6902438A61896901400091CB
:1004400008BD000000100240044908B58A69024353
:100450008A6189690140009108BD000000100240D6
:10046000F0B50A68C2F30F2595FAA5F2B2FA82F345
:1004700069E001229A402A4264D0082B03D240F25C
:1004800001129A4006E0A3F108024FF001149440D3
:1004900044F0806292FAA2F700EB1264B7FA87F791
:1004A0004FEA870C0F27266807FA0CF7BE4392FA2B
:1004B000A2F7D1F804E0B7FA87F7BF000EFA07FEFB
:1004C00046EA0E0626600E69C7684FEA122C9CFAAF
:1004D000ACFCBCFA8CFC27EA122706FA0CF6374370
:1004E000C7604E68012E01D0092E2BD192FAA2F7D7
:1004F000B7FA87F74FEA870C032707FA0CF7266845
:10050000D1F808E0BE4392FAA2F7B7FA87F7BF0026
:100510000EFA07FE92FAA2FC46EA0E06BCFA8CFC22
:100520004FEA8C0E4FF0040C26600CFA0EFC92FA87
:10053000A2F2B2FA82F2CF68920026EA0C06974045
:100540003E4326605B1C35FA03F292D10020F0BDD9
:100550004FF47A71B0FBF1F14FF0E020491E416198
:100560000021816105210161704700000149086097
:100570007047000004000020FEE7704730B500F02F
:100580000703C3F10704042C00D90424181D07280D
:1005900001D2002300E0DB1E012505FA04F0401E15
:1005A000084098409D406D1E1540284330BD000016
:1005B0006B4F02247C616B4E4FF004084046C6F836
:1005C000148000BF00BF00BF00BF00BF00BF346188
:1005D00000BF00BF00BF00BF00BF00BFDFF888B191
:1005E0004FF00109CBF81490786100BF00BF00BF45
:1005F00000BF00BF00BF746130610025FF20FFF71E
:10060000FFFE6D1CEDB2102DF8D3012000F09CF917
:10061000A24620467C614446C6F8148000BF00BF55
:1006200000BF00BF00BF00BF306100BF00BF00BF00
:1006300000BF00BF00BFCBF810907C6100BF00BFBF
:1006400000BF00BF00BF00BF706134610025FF2004
:10065000FFF7D6FE6D1CEDB2102DF8D3012000F08F
:1006600073F95546C7F814A0B2463046746100BF0E
:1006700000BF00BF00BF00BF00BF056100BF00BFDB
:1006800000BF00BF00BF00BFCB46374AC2F814907E
:100690003C6100BF00BF00BF00BF00BF00BF45619D
:1006A00004610026FF20FFF7ABFE761CF6B2102E89
:1006B000F8D3012000F048F9B94638467D61564626
:1006C000CAF8144000BF00BF00BF00BF00BF00BF9A
:1006D000356100BF00BF00BF00BF00BF00BFD846EC
:1006E000DFF884A0CAF810B0046100BF00BF00BFEB
:1006F00000BF00BF00BF756134610027FF20FFF716
:100700007FFE7F1CFFB2102FF8D3012000F01CF9F0
:100710004846C9F81450746100BF00BF00BF00BF55
:1007200000BF00BF356100BF00BF00BF00BF00BFFA
:1007300000BFCAF81480446100BF00BF00BF00BF03
:1007400000BF00BF7561346100240020FFF758FE30
:10075000641CE4B2102CF8D3012000F0F5F827E770
:100760000010014000080140000C014010B501F0EC
:10077000E7FA012803D0BDE8104001F017B810BD1A
:100780001F4810B5016821F00701016000681D488D
:10079000016841F4803101600168C1F340410029E2
:1007A000FAD0416821F47C1141F4A0214160016834
:1007B00041F0807101600168C1F340610029FAD005
:1007C000416821F0F0014160416821F4E06141603D
:1007D000416821F460514160416821F0030141F01A
:1007E00002014160416801F00C010829FAD1064C70
:1007F0002046FFF7ADFE2046BDE81040FFF7B6BE2D
:10080000002002400010024000366E010D480168D1
:1008100041F00101016041680B4A114041600168EB
:100820000A4A11400160016821F480210160416899
:1008300021F4FE0141604FF41F0181600449C003AF
:1008400008607047001002400000FFF8FFFFF6FE4E
:1008500008ED00E0FEE70907090E002804DB00F1BF
:10086000E02080F80014704700F00F0000F1E02055
:1008700080F8141D704702E008C8121F08C1002A42
:10088000FAD170477047002001E001C1121F002A11
:10089000FBD1704708B50120FFF7CAFD2348C169A5
:1008A00041F08051C161C069214C00F0805000903E
:1008B00020684FF6FF0108401E4940F4407008438D
:1008C000206020680022C0F302200F21FFF756FEAF
:1008D00001462017FFF7BFFF20680022C0F3022067
:1008E0000F21FFF74BFE01466017FFF7B4FF1248D8
:1008F000416821F0E0614160416841F00071416070
:10090000FFF73EFF1020FFF793FD0420FFF790FD57
:10091000FFF7B0FC00F032F8084A0021084800F068
:1009200069F80849086000F045F8FEE70010024049
:100930000CED00E00000FA0500000140AC200008CA
:10094000B10500080000002010B5EFF3058149B99A
:10095000EFF3108131B908490968022905D1EFF395
:10096000118111B16FF0050403E0002408B100F01B
:10097000E3FD204610BD000058000020EFF3058085
:1009800058B9EFF3108040B909490868022801D02E
:1009900030B109E0EFF3118030B16FF0050070471E
:1009A00001200860002070474FF0FF3070470000C2
:1009B0005800002010B5EFF3058060B9EFF3108008
:1009C00048B90B490868022802D0012806D00BE07C
:1009D000EFF3118040B16FF0050010BD02200860F8
:1009E00000F012FE002010BD4FF0FF3010BD0000DF
:1009F00058000020F0B585B04FEA01034FF0000425
:100A0000EFF305810394A1BBEFF3108189BB21496A
:100A10000968022902D1EFF3118151BB48B3802646
:100A200018218DF8104004AD42B3176807B13D4658
:100A300097691FB139467F1E382F02D21779FF07F9
:100A400002D0002005B0F0BD576907B1BE08D2F84A
:100A500008C0BCF1000F0DD0D4685C2C18D312690B
:100A60003AB137B18DE806103246294601F03DF91A
:100A700003900DE0D7685FB912694AB903AACDE9BE
:100A80000012B2B2294601F003F9012800D0039404
:100A90000398D7E7580000202DE9F041134C0F468A
:100AA000054666692068001D00F016FC681C07D129
:100AB00037B12168BDE8F0410D48091D00F05CBC6C
:100AC00020683544B5424560216805D2A068BDE87C
:100AD000F041091D00F038BC6068091D00F034FCCD
:100AE000206B854200D22563BDE8F081080000201C
:100AF000700500202DE9F041054600F049FC2D4C21
:100B00002069401C206120682B4F10B1E06930B390
:100B10002BE025602069012827D1002606EB8600FE
:100B200007EB800000F002FC761C382EF6D3234839
:100B300000F0FCFB2148143000F0F8FB1F4828307F
:100B400000F0F4FB1D483C3000F0F0FB1B48503037
:100B500000F0ECFB194860601430A06005E02068EC
:100B6000E96AC06A884200D82560E06A401CE062F9
:100B70006864E86AA169884200D9A06100EB80003E
:100B800007EB8000291D00F0F7FB00F021FCE06975
:100B900000280CD02068E96AC06A884207D2084958
:100BA0004FF080500860BFF34F8FBFF36F8FBDE8E9
:100BB000F081000008000020C00000202005002077
:100BC00004ED00E038B500F0E3FB104CA068C8B9B4
:100BD0000F4800F0ABFB0E48143000F0A7FB0C48A8
:100BE0002060143060600A4B00202833009003F12D
:100BF000500210210A2000F0EFFDA06010B105A105
:100C000000F064FCBDE8384000F0E2BB4400002086
:100C100084050020546D72510000000030B4026C55
:100C20000B46002A0BD0C1681144C1604468A14240
:100C300001D30168C16030BC1846FFF7E1BA30BC8F
:100C400070472DE9F041856B174604460026026C7B
:100C500082B1C7B1E068FFF7D3FAE168206C091AE6
:100C6000E1602268914202D26168081AE060022FB6
:100C700016D017E02068A8B9606801F0D9F80646D8
:100C8000002060600EE0A068FFF7BAFA216CA0684F
:100C90000844A0606168884204D32068A06001E035
:100CA00005B16D1E6D1CA5633046BDE8F08110B521
:100CB000044690F8590058B101280CD002280FD0F2
:100CC000502080F31188BFF34F8FBFF36F8FFEE783
:100CD000206B00F091FB2046BDE8104000F08CBB7B
:100CE00010BD000010484FF44061420706D0C01DFF
:100CF0000D4920F00700411AC1F540610B4A00235D
:100D00000144C2E900030839103A21F007011160DB
:100D10004B600B600B1AC0E9001393604FF000406A
:100D20005360D06070470000540D00206C0000201C
:100D3000144E154CA6F29C474FF08058DFF84C90AB
:100D400012E000BF00F024FBF068C568281D00F029
:100D5000C3FA2069401E2061E068401EE06000F098
:100D600037FB2846FFF7A3FFE0680028EAD1386880
:100D70000128F9D9C9F80080BFF34F8FBFF36F8FF7
:100D8000F2E700005C0500200800002004ED00E010
:100D900070B51D46049C51B1C4F80020C4E90F0190
:100DA0000121204600F04CFD84F84C5070BD2460B9
:100DB000F4E72DE9F0470E46DDE90984174682463F
:100DC00091009946089DA522206BFFF72BFA6FF042
:100DD0000301206B01EB8701084420F00707780727
:100DE00007D0502080F31188BFF34F8FBFF36F8F70
:100DF000FEE72218315C82F83410315C11B1401CDE
:100E00001028F6D3002684F84360382D00D3372508
:100E1000E562C4E91356201D00F093FA04F11800AE
:100E200000F08FFA2461C5F138006462A061666544
:100E300084F858604A465146384600F03BFA206034
:100E4000B8F1000F01D0C8F80040BDE8F0870000FD
:100E500030B5114900E011460A688242FBD34B6865
:100E60005C18844203D140681844486008464368CF
:100E70001C18944209D1084C103C2468A24209D0A5
:100E800052681A4442600A6812680260814200D0C7
:100E9000086030BD0460F9E76C00002070B50024E4
:100EA00041600B4D0061914206D8D11A826991428E
:100EB00006D2011D686807E09A4203D2994201D325
:100EC000012403E0011D286800F03EFA204670BDB1
:100ED0004400002010B5044600F05AFAA06B28B177
:100EE0005FF0000400F074FA204610BD0124F9E719
:100EF00030B589B0304D55E00498002806DADDE9B8
:100F00000601059A9047049800284BDB069C60690F
:100F100010B1201D00F0E0F902A800F0B9F8024677
:100F200004980A283ED2DFE800F00505053D263783
:100F300005053D260598A169034601442046FFF7B3
:100F4000ADFF00B3616A20468847E069012829D1D6
:100F5000002000900598A1690023421819462046F8
:100F600001F070F878B9502080F31188BFF34F8FEB
:100F7000BFF36F8FFEE70598A06128B18118134673
:100F80002046FFF78BFF0DE0502080F31188BFF360
:100F90004F8FBFF36F8FFEE794F82C0010B92046F7
:100FA00000F02AFA002204A9A86800F09BFD00289E
:100FB000A2D109B030BD0000440000202DE9FC4161
:100FC0000F46054600F064FB01A800F061F80446F6
:100FD000019818B100F0A4FFBDE8FC81224EAFB12A
:100FE00070680068A8B30027291B3A46B06800F073
:100FF00081FA00F095FF0028EED11C494FF0805097
:101000000860BFF34F8FBFF36F8FE5E7A542EBD8C2
:1010100000F086FF30682746C068C468201D00F0D5
:101020005BF9E069012810D1A0692B4641193A46C5
:101030002046FFF733FF40B10020034601460090F1
:101040002A46204600F0FEFF20B1616A204688470C
:10105000C2E707E0502080F31188BFF34F8FBFF342
:101060006F8FFEE70127BFE74400002004ED00E09A
:1010700006484168096829B14168C968C968496872
:10108000016370474FF0FF31FAE7000008000020CD
:1010900070B5054600F062FE064E04463069844293
:1010A00003D200F009F8012000E00020286020466B
:1010B000346170BD44000020F8B5194D1FE0C068D0
:1010C000C4680668201D00F007F9616A2046884759
:1010D000E069012813D1A0693044B04206D92461E7
:1010E0006060211D286800F02FF908E00020034609
:1010F000014600903246204600F0A4FF38B128682F
:1011000001680029DBD16968C5E90010F8BD5020ED
:1011100080F31188BFF34F8FBFF36F8FFEE700009E
:101120004400002008484068401C4FF0500080F305
:10113000118804D0BFF34F8FBFF36F8FFEE7BFF36B
:101140004F8FBFF36F8FFEE774000020074C2068BD
:10115000016841B1C0680021D0F80000FFF72EFF00
:10116000FFF7C6FEF3E701210020F7E74400002067
:101170002DE9F041044600F00BF994F9455004F1D3
:10118000240609E0606A48B1304600F091FE08B1DB
:1011900000F000FA6D1E6DB2002DF3DC4FF0FF364B
:1011A00084F8456000F014F900F0F2F894F9445026
:1011B00004F1100709E0206948B1384600F078FED4
:1011C00008B100F0E7F96D1E6DB2002DF3DC84F874
:1011D0004460BDE8F04100F0FBB800002DE9F041AB
:1011E0000546002700F054FA314E306808B9FFF781
:1011F00079FDF06805424BD1C5B3083568070ED0BC
:1012000005F00700C0F108000544680707D050202A
:1012100080F31188BFF34F8FBFF36F8FFEE72DB3BD
:101220007068854234D82248103001460C6801E0CD
:1012300020460C466168A94202D221680029F7D1F4
:1012400031688C4224D007682168016060680837E3
:10125000411B10290FD96019420708D0502080F394
:101260001188BFF34F8FBFF36F8FFEE710E041602F
:101270006560FFF7EDFD61687068401A7060B268E4
:10128000904200D2B060F06801430020C4E9000140
:1012900000F046FE780707D0502080F31188BFF396
:1012A0004F8FBFF36F8FFEE73846BDE8F081000037
:1012B0005C00002010B5031F4FF080741C601B1FE2
:1012C00021F001011960191F024B0B6014394038DD
:1012D0000A6010BD25110008D0E9013201699A6049
:1012E000D0E901235A604A68824201D182684A608B
:1012F000002202610868401E08600868704700000C
:10130000034B036003F15C000860802010607047AD
:101310009C060020044B036003F15C0008604FF45E
:101320008070106070470000F808002000F108018C
:101330004FF0FF32C0E90112C1600161002101607C
:10134000704700210161704730B50B685A1C02D00C
:1013500000F1080202E0026904E0224654682568B0
:101360009D42FAD953684B6099608A605160086168
:101370000168491C016030BD42684A6093688B6017
:1013800093685960916008610168491C0160704769
:10139000502080F31188BFF34F8FBFF36F8F0A493E
:1013A0004868401C486001280CD10848006810F0CB
:1013B000FF0F07D0502080F31188BFF34F8FBFF38A
:1013C0006F8FFEE7704700007400002004ED00E01E
:1013D0000849486828B1401E486001D180F311884F
:1013E0007047502080F31188BFF34F8FBFF36F8F8A
:1013F000FEE700007400002070B5002827D0144DCF
:10140000A0F108046168E868014207D1502080F328
:101410001188BFF34F8FBFF36F8FFEE722683AB199
:10142000502080F31188BFF34F8FBFF36F8FFEE71B
:101430008143616000F02CF9606869680844686065
:101440002046FFF705FDBDE8704000F069BD70BDA6
:101450005C0000204FF0E02000210161816105491E
:101460004FF47A720968B1FBF2F1491E416107211C
:10147000016170470400002010B5FEF7ABFE114972
:1014800010280ED300F1E02090F8F0030A78904283
:1014900007D2502080F31188BFF34F8FBFF36F8FB7
:1014A000FEE709480068896800F4E060884207D9CF
:1014B000502080F31188BFF34F8FBFF36F8FFEE78B
:1014C00010BD0000740000200CED00E010B5084BCA
:1014D000002200BF53F832401CB1521C082AF9D335
:1014E00010BD43F8321003EBC201486010BD00008C
:1014F0008000002070B515460E460446FFF748FFF1
:1015000094F944100020491C01D184F8440094F956
:101510004510491C01D184F84500FFF759FFA06B25
:1015200028B92A46314604F1240000F051F820463B
:10153000BDE87040FFF71CBE10B5020014D00F4884
:10154000806B38B1502080F31188BFF34F8FBFF309
:101550006F8FFEE700F09CF800211046FFF79CFA21
:1015600000F0DEFC002807D105494FF080500860EC
:10157000BFF34F8FBFF36F8F10BD00000800002036
:1015800004ED00E002498A6A0260496941607047DF
:10159000080000200149012048627047080000202F
:1015A00010B50C4650B1094909681831FFF7CCFE57
:1015B0002046BDE810400121FFF76EBA502080F3AD
:1015C0001188BFF34F8FBFF36F8FFEE70800002035
:1015D00070B514460D4668B10A4909681831FFF71D
:1015E000CBFE0CB14FF0FF3521462846BDE87040D8
:1015F000FFF752BA502080F31188BFF34F8FBFF32B
:101600006F8FFEE70800002030B587B000240394F8
:1016100005AA04A903A80494FFF772FEDDE90301FB
:101620000094CDE90110002315A11748059A00F098
:101630005CFB164D002868631FD000F0D3FC012826
:1016400009D0401C19D1502080F31188BFF34F8F6F
:10165000BFF36F8FFEE7502080F31188BFF34F8FE9
:10166000BFF36F8F4FF0FF3028630120E8616C619A
:1016700007B0BDE8304000F045B807B030BD00000D
:1016800049444C4500000000310D000808000020CE
:101690000248816B491C81637047000008000020EC
:1016A000164810B5816B11B10121416210BD0021B6
:1016B00041628169124A01E0B9B1491E01EB81031F
:1016C00052F82330002BF7D001EB810302EB8302A9
:1016D00002F1080453685B685360A34201D15B6860
:1016E0005360DA680260816110BD502080F3118878
:1016F000BFF34F8FBFF36F8FFEE70000080000209D
:10170000C00000201CB5264908780190FF20087011
:1017100008788DF800009DF800009DF8002000F08A
:10172000F000904207D0502080F31188BFF34F8F14
:10173000BFF36F8FFEE79DF800001A4B00F05000DA
:1017400018700720986005E09DF8002052008DF881
:101750000020401E9DF800201206F5D49860032852
:1017600007D0502080F31188BFF34F8FBFF36F8FE6
:10177000FEE74FF440709860019808700A480168CD
:1017800041F470010160016841F070410160FFF7B0
:1017900061FE00205860FEF7E7FC00201CBD000041
:1017A00000E400E07400002020ED00E010B55020BF
:1017B00080F31188BFF34F8FBFF36F8F00F0D4FA1F
:1017C00018B104494FF080500860002080F3118860
:1017D00010BD000004ED00E038B5049D18B153B110
:1017E000CAB181B120E0502080F31188BFF34F8F40
:1017F000BFF36F8FFEE7502080F31188BFF34F8F48
:10180000BFF36F8FFEE7502080F31188BFF34F8F37
:10181000BFF36F8FFEE739B1502080F31188BFF31B
:101820004F8FBFF36F8FFEE750241C46012384F8CF
:1018300046302B460094FFF7ABFA204638BD000037
:1018400070B50D46040025D0FFF7A2FDD4E90F20A6
:10185000216802FB001161600021A1632168A16081
:101860000A46D4E90F01401E00FB0121E160214638
:101870004FF0FF3001F8440F487004F110008DB1B3
:10188000FFF754FD04F12400FFF750FDFFF7A0FD22
:10189000012070BD502080F31188BFF34F8FBFF33C
:1018A0006F8FFEE721690029F0D000F001FB0028CE
:1018B000ECD004494FF080500860BFF34F8FBFF366
:1018C0006F8FE3E704ED00E02DE9FF4782B01D468E
:1018D0008A464FF00008040003D0BAF1000F08D088
:1018E00011E0502080F31188BFF34F8FBFF36F8F4B
:1018F000FEE7206C38B1502080F31188BFF34F8F82
:10190000BFF36F8FFEE7022D0AD1E06B012807D0ED
:10191000502080F31188BFF34F8FBFF36F8FFEE726
:1019200000F00EFA3F4F4FF000094FF0805648B9D3
:10193000049838B1502080F31188BFF34F8FBFF364
:101940006F8FFEE7FFF724FDA06BE16B884207D3A2
:10195000022D05D00498D0B1B8F1000F1AD01EE0C6
:101960002A4651462046FFF76CF9616A19B104F125
:10197000240000F09DFA20B13E60BFF34F8FBFF30B
:101980006F8FFFF725FD012006B0BDE8F087FFF758
:101990001FFD22E06846FFF7F5FD4FF00108FFF755
:1019A00017FDFFF775FEFFF7F3FC94F94400401CA8
:1019B00001D184F8449094F94500401C01D184F889
:1019C0004590FFF705FD04A9684600F027F930B1FE
:1019D0002046FFF7CDFB00F0A3FA0020D4E7FFF785
:1019E000D7FCA06BE16B884213D1FFF7F1FC04F147
:1019F00010000499FFF7D4FD2046FFF7B9FB00F073
:101A00008FFA00289ED13E60BFF34F8FBFF36F8FD8
:101A100098E7FFF7DDFC2046FFF7AAFB00F080FA0D
:101A200090E7000004ED00E02DE9F0471F469046E6
:101A30008946040003D0B9F1000F08D011E050200E
:101A400080F31188BFF34F8FBFF36F8FFEE7206CD9
:101A500038B1502080F31188BFF34F8FBFF36F8FE1
:101A6000FEE7022F0AD1E06B012807D0502080F357
:101A70001188BFF34F8FBFF36F8FFEE7FFF7FCFCBA
:101A80005020EFF3118680F31188BFF34F8FBFF31F
:101A90006F8FA06BE16B884206D3022F04D0002029
:101AA00086F31188BDE8F08794F945503A464946D7
:101AB0002046FFF7C6F8681C04D06D1C84F845501A
:101AC0000120EDE7606A0028FAD004F1240000F05C
:101AD000EFF90028F4D0B8F1000FF1D00121C8F8D7
:101AE0000010EDE72DE9F747002683B08A46040091
:101AF00003D0BAF1000F08D011E0502080F3118814
:101B0000BFF34F8FBFF36F8FFEE7206C38B15020CB
:101B100080F31188BFF34F8FBFF36F8FFEE700F0A4
:101B20000FF9DFF8F4804FF000094FF0805748B903
:101B3000059838B1502080F31188BFF34F8FBFF361
:101B40006F8FFEE7FFF724FCA56BC5B15146204619
:101B5000FFF764F86D1EA563206950B104F1100011
:101B600000F0A6F928B1C8F80070BFF34F8FBFF39B
:101B70006F8FFFF72DFC012006B0BDE8F0870598B8
:101B800008B11EB106E0FFF723FC27E06846FFF727
:101B9000F9FC0126FFF71CFCFFF77AFDFFF7F8FBC5
:101BA00094F94400401C01D184F8449094F9450014
:101BB000401C01D184F84590FFF70AFC05A968464E
:101BC00000F02CF8002820460AD0FFF7D1FA00F0E8
:101BD000A7F92046FFF77EF90028B3D00020CBE715
:101BE000FFF778F990B104F124000599FFF7D8FCCC
:101BF0002046FFF7BDFA00F093F90028A2D1C8F8FB
:101C00000070BFF34F8FBFF36F8F9BE72046FFF746
:101C1000AFFA00F085F995E704ED00E02DE9F04119
:101C20000C46050011D0C4B1FFF7B2FB174B5A693F
:101C30006E682068911B471C17D02F689B6A9F42D3
:101C400019D0964217D8012410E0502080F3118853
:101C5000BFF34F8FBFF36F8FFEE7502080F31188E3
:101C6000BFF34F8FBFF36F8FFEE70024FFF7B0FB8A
:101C70002046BDE8F081884205D9401A20602846F8
:101C8000FFF780FCF1E700202060DCE7080000207F
:101C90002DE9FF5F8346DDE90E87994616468A46A1
:101CA0009000FFF79BFA05001CD05C20FFF796FA26
:101CB000040014D00020256384F85900CDE90240C7
:101CC000CDE900874B46324651465846FFF771F83A
:101CD0002046FEF70FFF012004B0BDE8F09F284624
:101CE000FFF78AFB4FF0FF30F6E7F0B585B0DDE98E
:101CF0000B640A9DA6B1DCB15C270097266302261F
:101D000084F85960002604AFCDE90246CDE90057BA
:101D1000FFF74FF82046FEF7EDFE049805B0F0BD42
:101D2000502080F31188BFF34F8FBFF36F8FFEE712
:101D3000502080F31188BFF34F8FBFF36F8FFEE702
:101D40000548C16919B1806B18B1002070470120A6
:101D500070470220704700000800002001484069D9
:101D600070470000080000202DE9F0412E4C0027AC
:101D7000A06B40B1206A401C2062606A00B101275C
:101D80003846BDE8F0816669761C666113D16068EB
:101D9000006838B1502080F31188BFF34F8FBFF334
:101DA0006F8FFEE76068A1686160A060A06A401C58
:101DB000A062FFF75DF9206BDFF87080864209D3DF
:101DC0006068006880B16068C068C56868688642FD
:101DD0000DD220632068C06A00EB800158F8210012
:101DE0000128CAD90127C8E74FF0FF30F1E7281DC5
:101DF000FFF772FAA86A18B105F11800FFF76CFA3C
:101E0000E86AA169884200D9A06100EB800108EB73
:101E10008100291DFFF7B0FAE86A2168C96A884283
:101E2000CED30127CCE7000008000020C00000202E
:101E300070B504004FF0000133D01B4D2868844278
:101E400007D0502080F31188BFF34F8FBFF36F8FFF
:101E5000FEE7206D38B1401E2065E36CE26A9A42CD
:101E60001FD040B11DE0502080F31188BFF34F8F89
:101E7000BFF36F8FFEE7201DFFF72EFAE06CE062E4
:101E8000C0F13800A061E06AA969884200D9A86160
:101E9000064900EB800001EB8000211DFFF76CFA82
:101EA0000121084670BD000008000020C00000208D
:101EB00070B5C068C46854B104F118000646FFF755
:101EC0000BFA144DA86B50B13146134815E0502061
:101ED00080F31188BFF34F8FBFF36F8FFEE7201D94
:101EE000FFF7FAF9E06AA969884200D9A8610B49AD
:101EF00000EB800001EB8000211DFFF73DFAE06A56
:101F00002968C96A884202D90120686270BD002030
:101F100070BD00000800002048050020C00000201F
:101F20002DE9F0472C4D00242746A86B38B1FFF768
:101F30002FFAA86B401EA863A86B40B146E0502062
:101F400080F31188BFF34F8FBFF36F8FFEE72969CE
:101F5000224E0120D1B3A6F5916980463068E0B1E8
:101F6000F068C46804F11800FFF7B6F9201DFFF708
:101F7000B3F9E06AA969884200D9A86100EB800141
:101F800009EB8100211DFFF7F7F9E06A2968C96AAA
:101F90008842E3D3C5F82480E0E70CB1FFF768F886
:101FA0002C6A4CB14FEA0806FFF7DEFE00B16E6204
:101FB000641EF9D100202862686A38B108490127F7
:101FC00038070860BFF34F8FBFF36F8FFFF700FA3A
:101FD0003846BDE8F08700000800002048050020D2
:101FE00004ED00E010B586B0FEF7ECFD114CA068E2
:101FF000B8B100200390049005AA04A903A8FFF734
:1020000089F9DDE9032102208DE8070000230AA1F8
:102010000B48059AFFF769FEE06010B106B0012099
:1020200010BD502080F31188BFF34F8FBFF36F8F27
:10203000FEE7000044000020546D722053766300D8
:102040004D1100082DE9FF411E46134602000A9D6E
:102050004FF0000016D0144CA768002F0FD0CDE928
:1020600000130292062917DAFFF76AFE02284FF0E2
:1020700000030FD000226946A068FFF725FC04B0DA
:10208000BDE8F081502080F31188BFF34F8FBFF37C
:102090006F8FFEE72A46EEE7002332466946384650
:1020A000FFF7C2FCEBE7000044000020D02000084E
:1020B0000000000000000000000000000000000020
:1020C00000080000180000000000000000000000F0
:1020D00064656661756C745461736B00FC20000864
:1020E0000000002080000000760800087C21000825
:1020F00080000020D81C00008608000800000000B6
:102100000024F400000000000000000000000000B7
:1021100000000000000000000000000000000000BF
:1021200000000000000000000000000000000000AF
:10213000000000000000000000000000000000009F
:10214000000000000000000000000000000000008F
:10215000000000000000000000000000000000007F
:10216000000000000000000000000000000000006F
:0C21700000000000AAAAAAAA00000000BB
:0400000508000131BD
:00000001FF
